:020000040800F2
:10000000B05B0020B90200088D2B0008C52A00084B
:10001000892B0008C92200081F3E000800000000CC
:10002000000000000000000000000000B12D0008EA
:10003000FF26000800000000152C000811370008FA
:10004000D3020008D3020008D3020008D30200083C
:10005000D3020008D3020008D3020008D30200082C
:10006000D3020008D3020008D3020008B12400081C
:10007000D3020008D3020008D3020008D30200080C
:10008000D3020008D3020008D3020008D3020008FC
:10009000D3020008D3020008D3020008D3020008EC
:1000A000D3020008D3020008D3020008D3020008DC
:1000B000D3020008D3020008D3020008D3020008CC
:1000C000D3020008D3020008D3020008D3020008BC
:1000D000D30200080D3C0008D3020008D302000838
:1000E000D3020008D3020008D3020008D30200089C
:1000F000D3020008D3020008D3020008D30200088C
:10010000D3020008D3020008D3020008D30200087B
:10011000ED3A0008D3020008D3020008D302000819
:10012000D3020008D3020008D3020008D924000833
:1001300000F002F800F0B0F80AA090E8000C824449
:100140008344AAF10107DA4501D100F0A5F8AFF226
:10015000090EBAE80F0013F0010F18BFFB1A43F0A5
:100160000103184748690000686900000A444FF01D
:10017000000C10F8013B13F0070408BF10F8014B06
:100180001D1108BF10F8015B641E05D010F8016B4B
:10019000641E01F8016BF9D113F0080F1EBF10F8AF
:1001A000014BAD1C0C1B09D16D1E58BF01F801CBD2
:1001B000FAD505E014F8016B01F8016B6D1EF9D555
:1001C0009142D6D37047000000230024002500266A
:1001D000103A28BF78C1FBD8520728BF30C148BFAA
:1001E0000B6070476E2900F07B83702900F0A381BB
:1001F000662906F0AE83652906F0AB83672906F011
:10020000A883612906F0A78303681B0A28BF41F071
:100210008001692900F02883642900F0258375296D
:1002200000F022836F2900F04A84782900F06F8162
:10023000E92900F0E583E42900F0E283F52900F0E4
:10024000DF83EF2900F04784F82900F06E8103680E
:10025000DB0928BF41F08001632901F02780732961
:1002600001F02C80E32901F03780F32901F03C8074
:10027000002070471FB501F08DF804000020002118
:1002800005F066F9401C60600020002105F04AF985
:10029000E0601FBD10B510BD01F04EF81146FFF72C
:1002A000E9FF04F0B7F801F02BF903B4FFF7F2FF10
:1002B00003BC01F06FF90000094880470948004776
:1002C000FEE7FEE7FEE7FEE7FEE7FEE7FEE7FEE706
:1002D000FEE7FEE704480549054A064B7047000063
:1002E0001537000831010008B0550020B05B002030
:1002F000B0570020B05700202DE9FF4F0C4693B0B7
:10030000D0E901610891DDF85480006810900898E8
:1003100000680C900898DDF8589050F8041F03917D
:1003200050F8041F0B9150F8041F0A9141680830DF
:10033000CDE90801D6E90251D6E9007AB9F1000FFA
:1003400034D0B9F1004F42D2B9F1000F2EDD00BF19
:1003500054F804BB099806F0F7F8059029460A9866
:1003600006F0F2F8049051460B9806F0EDF80F9065
:100370003946039806F0E8F8824659460C9806F08C
:10038000E3F8514605F014FF0F9905F011FF0499A9
:1003900005F00EFF059905F00BFFBA46294648F80F
:1003A000040B5F460546B9F10109D1D146F8047B3B
:1003B00046F804AB46F8045B46F8041B1098159CFD
:1003C000401EA0461090A2D117B0BDE8F08F54F89F
:1003D00004BB099806F0B8F80E9029460A9806F072
:1003E000B3F8049051460B9806F0AEF805903946E4
:1003F000039806F0A9F8824659460C9806F0A4F82E
:10040000514605F0D5FE059905F0D2FE049905F098
:10041000CFFE0E9905F0CCFEBA46294648F8040BEB
:100420005F460546B9F10109D1D1BFE770B58260D9
:10043000016004461D460901184600F04BF965604D
:1004400070BD00001CB50C46064B7B44694600900D
:10045000204600F05EFA04460020694600F06CFA7F
:1004600020461CBDEB04000070B504468569006899
:10047000C10601D5302600E02026C00707D070BD98
:10048000D4E9012130469047206A401C20626D1E4D
:10049000F6D570BD70B5044685690078C00707D1F0
:1004A00070BDD4E9012120209047206A401C2062C1
:1004B0006D1EF6D570BD0000F0B40D46018809052B
:1004C00002D5214C7C4402E01F4C7C440E340021B8
:1004D00000F1240608E002F00F071209E75D42EA86
:1004E00003721B097754491C52EA0307F3D10278BF
:1004F0000023120704D5702D06D009B10223113450
:100500002246F0BC00F056B901231034F8E770B56C
:1005100004460D462146106800F01AF902462946A5
:100520002046BDE870400023C6E7D21D22F0070335
:10053000D3E90023C0E70368126843F02003036097
:100540000823C3610023B7E7926400002DE9F05F40
:10055000894604464FF0000ADFF874B1FB44C0F846
:1005600020A02046E1688847002874D0252806D0BE
:10057000D4E901219047206A401C2062F1E700265F
:100580005F462046E16888472028054607DB312D75
:1005900005D2781910F8200C08B10643F1E7B0072E
:1005A00001D526F00406C4F81CA00027C4F818A042
:1005B0002A2D09D0284603F055FC38B304EB8708F0
:1005C000303DC8F8185019E059F8041B204604EBD8
:1005D00087029161E1688847012F054618D1E069DB
:1005E000002820DA26F020061DE0D8F8180000EBDD
:1005F000800005EB40003038C8F818002046E1685C
:100600008847054603F02EFC0028EED1012F0AD0C2
:100610002E2D08D12046E16888477F1C0546022F11
:1006200046F02006C4DBA069002803DA404246F009
:100630000106A061F00701D026F010066C2D0BD04A
:10064000682D09D04C2D39D06A2D35D0742D35D078
:100650007A2D33D016E038E0E1682F4620468847EF
:10066000B842054609D16C2F26D04FF48060E1686E
:10067000064320468847054604E06C2F1AD04FF405
:10068000807006430DB3A5F14100192802D820352A
:1006900046F400664A462946204626604E46FFF745
:1006A000A1FD80B101280BD0F61D26F0070000F156
:1006B000080956E74020E4E78020D8E70020D6E785
:1006C00006F104094DE7284652E7206ABDE8F09F8D
:1006D000226400004FF0000200B51346944696468F
:1006E000203922BFA0E80C50A0E80C50B1F1200145
:1006F000BFF4F7AF090728BFA0E80C5048BF0CC0F3
:100700005DF804EB890028BF40F8042B08BF704750
:1007100048BF20F8022B11F0804F18BF00F8012BC2
:10072000704770477047704710B500F0DFF90068F8
:1007300010BD10B5044600F0D9F9046010BD096879
:100740004A0501D540B27047C905FCD500B27047D3
:1007500009684A0501D5C0B27047C905FCD580B209
:10076000704770B50C460546012A05D028788006EA
:1007700000D5EA69002302E0012305E05B1C9342F7
:1007800002D2E05C0028F9D1A869E618C01AA86175
:10079000286A184428622846FFF766FE04E0D5E977
:1007A000012114F8010B9047B442F8D32846FFF713
:1007B00071FE70BD2DE9F0470D46994692460446FC
:1007C00000F124080168880604D5E06921F01001D1
:1007D000216000E00120A84201DD471B00E0002766
:1007E000A1697A1902EB0900081AA0612078C006F5
:1007F00002D42046FFF738FE002608E0D4E90121A4
:100800001AF806009047206A401C761C20624E456C
:10081000F4DB2078C0060AD52046FFF725FE06E067
:10082000D4E9012130209047206A401C2062381E04
:10083000A7F10107F4DC07E0D4E9012118F805006D
:100840009047206A401C2062281EA5F10105F3DCB8
:100850002046FFF71FFE2078000602D50220BDE8E3
:10086000F0870120FBE700002DE9F0410646002457
:1008700010687529314616A510D0FFF760FF0028D3
:1008800002DA404213A507E031688A0701D512A5B4
:1008900002E0490704D511A5012401E0FFF758FF44
:1008A00000210A2206F1240709E0B0FBF2FCB0FBAC
:1008B000F2F302FB1C00303078541846491C002823
:1008C000F3D123462A463046BDE8F041FFF772BF18
:1008D000000000002D0000002B00000020000000A0
:1008E00011680268006A530501D508700AE0D30553
:1008F00001D5088006E0130603D5C217C1E900023E
:1009000000E008600120704701694A1C0261087814
:10091000704700B58FB0CDE901310021059105493F
:100920007944CDE9031011466846FFF70FFE0FB07A
:1009300000BD0000E5FFFFFF0A6802F8010B0A6036
:10094000704700002DE9FF5F15468A460446DFF830
:10095000AC80F8440027D8E900103E46CDE90010ED
:1009600010E03AF816106A4602A800F0C1FC411CDB
:1009700007D02178890603D5E269391891420DD84C
:100980000744761C2078800602D5E069B84205DD70
:10099000AE42E6DB3AF816000028E2D1A069C01B9F
:1009A000A0612046FFF760FDD8E90010CDE90010F6
:1009B000002017E03AF818106A4602A800F098FCE8
:1009C000B0F1FF3F81460BD000250DF1080B05E08B
:1009D000D4E901211BF8050090476D1C4D45F7D364
:1009E00008F10100B0428046E4DB206A384420620E
:1009F0002046FFF74FFDBDE8FF9F00003E6000006E
:100A00002DE9F0418046D21D22F007020025D2E9EF
:100A10000002F52915A614D0011E72F1000106DAB4
:100A20000023D0EB030063EB020211A608E0D8F824
:100A300000108B0701D50FA602E0490701D50EA6CD
:100A400001251146002408F1240704E000F052F8C3
:100A500030323A55641C50EA0102F7D12B46324637
:100A600021464046BDE8F041FFF7A4BE000000006B
:100A70002D0000002B0000002000000030B40021F9
:100A800000F1240408E002F00705D208303542EAFC
:100A90004372DB086554491C52EA0305F3D104682C
:100AA000002310A2250707D5A40600D421B1C469EC
:100AB00001230DA2641EC46130BCFFF77BBE10B5DC
:100AC000044621461068FFF743FE02462046BDE873
:100AD00010400023D2E7D21D22F00701D1E9002304
:100AE000CCE7000000000000300000000048704724
:100AF0005055002030B5B0F10A024FEA900E71F166
:100B000000034EEA817EB0EB0E0061EB91014FEAEB
:100B1000101E4EEA017E10EB0E0041EB11114FEA60
:100B2000102E4EEA016E10EB0E0041EB11214FEA40
:100B3000104E4EEA014E10EB0E0041EB11414018F1
:100B400041F100014FEAD00040EA41704FEAD10183
:100B500010EB80054FEA810444EA907444EB0104F1
:100B60006D1944EB0404521BA3414FF0000348BF2E
:100B70000A3200D530BD401C41F1000130BD704744
:100B80002DE9FF4F0C461E464FF0FF378BB0D2E9E0
:100B90000001DDF860800A908A46C1F30A5505B964
:100BA0003D46002108464FF00000BAF1000F00F466
:100BB000400005DA00EB80004FF4400101EA5000EC
:100BC0004FEA9059B9F1010F00DDB9460A9850EA91
:100BD0004A000ED044F61050A5F2FF3545432F14BD
:100BE000B8F1000F1ED07542291E1EDDC9F10002AA
:100BF0001CE0B8F1010F4FF0000001D0302103E0FC
:100C0000F24305E02154401CB042FBDB3046002299
:100C1000002121540B99C1F80880C1E900200FB0D0
:100C2000BDE8F08FBD1B6D1CDEE74A4600DA694265
:100C300006A800F0F3FB06AB93E8070003AB83E8DC
:100C4000070050460A9900F0ACFC8DE80700A0F5BB
:100C500000501F3800900398002D0ADD42F21F015A
:100C60004A460844002303A90390684600F015FF94
:100C700009E0A0F500504A461F38002303A903905D
:100C8000684600F01FFF8DE807000004000C03D049
:100C90004FF0FF30410800E01046B8F1000F03D0DC
:100CA0000022009215461EE0751E05D4FFF722FFB4
:100CB000303262556D1EF9D5B3460122084302D089
:100CC00000227F1C04E02078302801D100227F1E02
:100CD000002A099784D01DE0112D07DAFFF70AFFDB
:100CE000303262556D1C50EA0102F5D1084302D042
:100CF0000098C8B10EE00021681E05E0235C625C2C
:100D000063542254401E491C8142F7DBAB46A81BAA
:100D1000401E0990002004F80B000B98099AC0F8B7
:100D20000880C0E9002B7AE711264FF0000857E74A
:100D30002DE9F04F88460446D21D22F0070191B0FC
:100D4000D1E90001CDE90A0103F06BF802460B98E6
:100D5000C00F01D02D2007E02068810701D52B208E
:100D600002E0202101EAC000032A099001D0072AED
:100D700005DB03464146204600F010FB0BE12078DE
:100D8000800601D5E06900E00620B8F1650F8146D4
:100D900006D0B8F1660F18D0B8F1670F70D131E006
:100DA0000020B9F1110F009001DB112301E009F1DE
:100DB00001030AAA01A90CA8FFF7E2FEDDE90C7005
:100DC000002609F10105834647E001204B460090CB
:100DD0004FF000470AAA01A90CA8FFF7D1FEDDE9F0
:100DE0000DB00C995D46002610B909F101000D18EF
:100DF000B9EB050003D4C0F1FF3609F10105A5EBFD
:100E000009002BE0B9F1010F01DA4FF001090020D0
:100E1000B9F1110F0090484601DD112300E00346AF
:100E20000AAA01A90CA8FFF7ABFEDDE90C704D463C
:100E300000268346207800070AD4AB4500DA5D46D9
:100E400001A8012D04DD411911F8011C302907D03A
:100E50004F4502DA17F1040F04DA012082460FE051
:100E60006D1EEEE7002F02DCED1B3E4403E0781C14
:100E7000A84200DD7D1CB81B00F1010A4FF00047BD
:100E80002078000703D4AA4501DB4FF0FF3A002188
:100E9000B7F1004F0DF143088DF8431024D0022024
:100EA0002B23002F01DA7F422D230A21021EA0F1FD
:100EB000010000DC5FB197FBF1FC97FBF1F201FB55
:100EC0001C7C17460CF1300C08F801CDEEE7A8F1B8
:100ED000010003702188090501D5452100E0652145
:100EE000A0F1010800F8011C09980FA9A1EB08075F
:100EF000FF1D00B10120411901EBEA70A1693844DE
:100F0000081A401EA0612078C00602D42046FFF7D0
:100F1000ABFA099828B1D4E901219047206A401C16
:100F200020622078C00622D52046FFF79DFA1EE0F9
:100F3000002E04DBB34502DD01A8805D00E0302017
:100F4000D4E901219047206A401C2062761CAAF156
:100F500001005FEA000A0AD100F01CFAC0680168CB
:100F6000405CD4E901219047206A401C2062281E81
:100F7000A5F10105DCDC07E0D4E9012118F8010B3B
:100F80009047206A401C2062381EA7F10107F3DC5D
:100F90002046FFF77FFA032011B041E62DE9F04F1C
:100FA00004460D46D21D22F0070089B0D0E9009713
:100FB0004846394602F035FF0246F80F01D02D238E
:100FC00007E02068810701D52B2302E0202101EAF8
:100FD000C0038DF820300BB1012000E00020032A6F
:100FE000824601D0072A04DB2946204600F0D6F9C4
:100FF0003FE12078800601D40D2500E0E569C7F3C4
:101000000A560D2D49DA00214FEA175B08464FF0CA
:101010000000002F00F4400007DA00EB80004FF4DE
:10102000400100EBD07001EA60008115012901DD6B
:101030004FF0FF3100224FEA850CBCF1180F06D3A8
:101040001346ACF118004FF08052C24003E04FF459
:10105000801323FA0CF30CF10C0CBCF1200F04D319
:10106000ACF1200C09FA0CF001E007FA0CF00029B1
:101070004FF0004801DD18B90FE00ED140450CD308
:1010800019EB02095F4121B9404502D19F4329EA8A
:101090000209BBEB175F00D0761C2088000502D543
:1010A0007B48784402E07A487844193808AA30230B
:1010B00002F80A30037C0AF10101002E0AF1020A4B
:1010C00053546A4602DC4FF0300101E04FF0310129
:1010D0004FF001088DF8001002D0A6F2FF3603E0B1
:1010E00059EA470100D06B4E002D02DC2178090738
:1010F00004D54FF002082E218DF80110C4460021BE
:101100000BE0C7F303433F01C35C491C6D1E02F8AB
:101110000830052908F1010801DA002DF1DC002171
:101120000CE000EB1973491C1B786D1E082902F8AE
:1011300008304FEA091908F1010801DA002DF0DC46
:1011400021688B0602D516E0A8F10108E04505DD0F
:1011500002EB080313F8013C302BF5D0B8F1000F77
:1011600009DD02EB080313F8013C2E2B03D109071C
:1011700001D4A8F10108002D05DD3E2102F8081078
:101180006D1E08F10108407C002E02F8080008F1ED
:10119000010804DA2D20764202F8080002E02B2034
:1011A00002F808000A214FF47A70864208F101081B
:1011B0000BDB96FBF0F3303302F8083096FBF0F3CC
:1011C00008F1010800FB136601E0642E0CDB6420CB
:1011D00096FBF0F3303302F8083096FBF0F308F199
:1011E000010800FB136601E00A2E06DB96FBF1F016
:1011F000303002F8080008F1010896FBF1F001FB1D
:101200001060303002F80800A16908F1010808EB0D
:10121000050202EB0A00081AA0612078C00602D479
:101220002046FFF721F9216A08AE01EB0A0020628F
:1012300004E0D4E9012116F8010B9047BAF1010A44
:10124000F7D22078C00602D52046FFF70DF96E468A
:1012500009E016F8010B3E280FD0D4E90121904790
:10126000206A401C2062B8F10108F2D22046FFF744
:1012700011F909B00320BDE8F08F206A28442062EC
:1012800003E0D4E90121302090476D1EEBD3F8E74D
:101290000959000002FCFFFF10B5436913B1AFF319
:1012A000008001E0FFF75DFA012010BD127800F127
:1012B00024010A7000224A700122EDE711684FF004
:1012C000FF32E9E710B5436913B1AFF3008001E0E5
:1012D000FFF738FB012010BD128800F12401828441
:1012E0000022C2840122EDE711684FF0FF32E9E7E6
:1012F00070B516460C46054600F044F8036893F8AE
:101300000101012806D0FF2C0FD8185D68B101201B
:101310002C7070BDD3F807013246214603F2071343
:1013200003442846BDE8704018474FF0FF3070BDB9
:1013300000487047505500207546FFF7F9FFAE464C
:1013400005006946534620F00700854618B020B5D1
:10135000FEF7C0FFBDE820404FF000064FF0000749
:101360004FF000084FF0000B21F00701AC46ACE84D
:10137000C009ACE8C009ACE8C009ACE8C0098D46BA
:101380007047000010B500F005F8001D10BD00BF4B
:10139000C141000000487047705500202DE9F04120
:1013A0001F46044603260168072A01F4006004DB97
:1013B00008B116A505E016A503E008B115A500E0E3
:1013C00015A521F010002060A069C01EA0610FB11A
:1013D000401EA0612046FFF747F84FB1D4E9012134
:1013E00038469047206A401C2062C01C206206E0FC
:1013F000206AFAE7D4E9012115F8010B9047761E1F
:10140000F8D22046FFF746F8BDE8F0814E414E0085
:101410006E616E00494E4600696E66002DE9F04728
:10142000814616468AB0354878440DC88DE80D00CF
:1014300032487844801C03AC0DC884E80D0041F6A6
:101440009B300844372190FBF1F290FBF1F5A5F1B8
:10145000800501FB12041B3C02D56442012000E020
:101460000020DFF898A080460027FA44AAF1BE0ABF
:101470000EE0E0070AD03246684607EB4701012339
:101480000AEB810100F01EFB8DE8070064107F1C51
:10149000002CEED1194F7F44AE3F19E0E80715D07C
:1014A00007EB04100DF1180A90E80E008AE80E0010
:1014B000C068F04201D1981908903246012306A96C
:1014C00003A800F0FFFA03AB83E807006D10641C6B
:1014D000002DE3D14FF0010332466946B8F1000F09
:1014E00003A802D000F0D9FA01E000F0EBFAC9E954
:1014F0000001C9F808200AB0BDE8F08714560000C2
:1015000010B50446AFF300802046BDE81040FEF75A
:10151000CCBE00004FF0013C50F8042B51F8043BC6
:101520009A4221D1A2EB0C03934313EACC1317D1B7
:1015300050F8042B51F8043B9A4215D1A2EB0C034E
:10154000934313EACC130BD150F8042B51F8043B0E
:101550009A4209D1A2EB0C03934313EACC13DBD0DC
:101560004FF00000704700BFD01A01BAB1FA81F104
:1015700001F0180122FA01F0CB40C1F12001DBB2E9
:10158000C0B2C01A2CFA01F3D11A914311EAC31167
:10159000E6D1704701491820ABBEFEE726000200E5
:1015A00070475FEA400C08BF91F0000F4FEA8C23B0
:1015B0004FEAC12243EA51514FEA1C5018BF00F5CF
:1015C000F0404FEA300018BF41F000415FEA6C5C28
:1015D00000F02980BCF1FF3F08BF40F08040704719
:1015E000130C06BF12044FF0100C4FF0000C130E3A
:1015F00004BF12020CF1080C130F04BF12010CF10E
:10160000040C930F04BF92000CF1020CD30F04BF23
:1016100052000CF1010C11464FF00002A0F11F0026
:10162000A0EB0C00704711F0004F08BF704731F07D
:1016300000413FF4D5AF0B0C06BF09044FF0100C6E
:101640004FF0000C0B0E04BF09020CF1080C0B0F3D
:1016500004BF09010CF1040C8B0F04BF89000CF1CD
:10166000020CCB0F04BF49000CF1010CCCF120039C
:10167000A0EB0C0022FA03F302FA0CF241EA030198
:1016800000F10100704720F07F4C80EA030023F056
:101690007F47ACEB070303F57C5300F0004003F1F8
:1016A000FF032DE980494FEA154B09B44FEA144373
:1016B00025EA0B4E24EA03480FF2042606EB132713
:1016C00049083E785FEA320203FB0667C7F5000768
:1016D00007FB06F64FEA54374FEAD64606F10206F4
:1016E00007FB066CCCF1005C4FEA1C472CEA074C68
:1016F00007FB06F40CFB06F504EB15464FEA9616BD
:1017000034BF00204FF000404FEAD13706FB07FC02
:101710004FEA1C4C0CFB0BF7D21B03FB0CF761EBE5
:1017200007010CFB0EF7B0EB074072EB17420CFB06
:1017300008F734BFA2EB0742B2EB074261EB174157
:101740004FEA0C444FEA910706FB07FC4FEA1C4C9A
:101750000CFB0BF7B0EBC74072EB573203FB0CF7F7
:1017600034BFA2EBC742B2EBC74261EB57310CFB6F
:101770000EF7B0EBC70072EB57720CFB08F734BFE3
:10178000A2EBC702B2EBC70261EB5771039F4FEAAE
:10179000816141EA921104EBCC044FEAD1374FEA60
:1017A000826206FB07FC42EA90124FEA80604FEA31
:1017B0001C4C0CFB0BF7D21B03FB0CF761EB070176
:1017C0000CFB0EF7B0EB074072EB17420CFB08F76F
:1017D00034BFA2EB0742B2EB074261EB17414FEA7D
:1017E0008C554FEA910704EB9C2406FB07FC4FEA5B
:1017F0001C4C0CFB0BF7B0EBC74072EB573203FBF2
:101800000CF734BFA2EBC742B2EBC74261EB5731D2
:101810000CFB0EF7B0EBC70072EB57720CFB08F72E
:1018200034BFA2EBC702B2EBC70261EB577115EBF5
:101830004C254FEA816141EA92114FEA82624FEAF8
:10184000D13742EA901206FB07FC44F100044FEA4C
:1018500080604FEA1C4C0CFB0BF7D21B03FB0CF710
:1018600061EB07010CFB0EF7B0EB074072EB174280
:101870000CFB08F734BFA2EB0742B2EB074261EB67
:10188000174115EB1C154FEA813141EA92414FEAAD
:10189000823242EA90424FEA80304FEA0C7644F1BD
:1018A000000448EA03434EEA0B484FF0000EB2EB47
:1018B000080C71EB030724BF624639464EEB0E0E4F
:1018C0004FF0000B0018524149414BEB0B0BB2EBB0
:1018D000080C71EB03077BF1000B24BF624639460D
:1018E0004EEB0E0E4FF0000B0018524149414BEBEE
:1018F0000B0BB2EB080C71EB03077BF1000B24BF61
:10190000624639464EEB0E0E51EA020718BF46F00A
:10191000010616EB0E7655F1000254F1000103D5D5
:10192000BDE88901BDE80088BDE88901BDE800483F
:10193000B619524141EB0101A3F1010370478080C8
:101940007F7E7D7C7B7A7978777676757473727119
:1019500071706F6E6E6D6C6C6B6A6A6968686766D1
:1019600066656464636362616160605F5F5E5E5D63
:101970005D5C5C5B5B5A5A595958585757565655D7
:1019800055555454535352525251515050504F4F39
:101990004F4E4E4D4D4D4C4C4C4B4B4B4A4A4A4989
:1019A00049494848484747474746464645454544CC
:1019B0004444444343434342424242414141002B59
:1019C0009C4630D477002BD01CB54FEA370703B4C0
:1019D0004FF010004FF01001BAF1000F06D0BCF12B
:1019E000000FDCBF40F0080040F008014FF000009D
:1019F0000FBCBDE810400BF1010BBBF1010F08BF9C
:101A00005FEA170722BF12F1010211F101014FF045
:101A1000004143F1000300F0004043EA000070473A
:101A2000F9D35708D0E746EA064613F1400F4FEACC
:101A300016461FDD13F1200FDFBF16430A460021B3
:101A400020335B42BED0C3F1200746EA064602FAC5
:101A500007F74FEA164646EA0706C3F1200722FABF
:101A600003F201FA07F721FA03F14FF0000342EA0B
:101A70000702A7E746EA020646EA06464FEA164686
:101A800046EA0106BCBF46EA0646360C4FF00003A4
:101A90004FF000024FF0000194E72DE9804C9A4688
:101AA000934670B491E8380007C831EA400C48BF4B
:101AB00034EA430C03D5FFF7E6FDFFF780FFF0BCE7
:101AC000BDE8008C2DE9804C9A46934670B491E8AD
:101AD000380007C810F0804F08BF13F0804F03D1C3
:101AE00000F005F8FFF76BFFF0BCBDE8008C20F0BC
:101AF0007F4780EA030023F07F4C07EB0C03A3F53C
:101B00007C5300F00040A3F1FE0392F0000F00F0C0
:101B1000B38095F0000F00F077802DE901494FEA7E
:101B200011404FEA144621EA004800FB06FC24EA73
:101B3000064708FB06F607FB08F800FB07F718EB5B
:101B400006484CEB164C4FEA124B18EB07484FEA8D
:101B500015464CEB174022EA0B4E0BFB06FC25EA20
:101B600006470EFB06F607FB0EFE0BFB07F71EEB08
:101B7000064E4CEB164C4FF000061EEB074E4CEB9E
:101B8000174B18EB0B0840F1000018EB0E0B58EB4D
:101B9000000840F100008F1A4FF000013CBFC9431C
:101BA000661B14BFB5EB040C00213CBFC943F61BF8
:101BB0004FEA17444EEA8E0E27EA04454FEA1C47C7
:101BC00004FB07622CEA074C05FB07F70CFB05F644
:101BD00004FB0CFC16EB074642EB174216EB0C46D7
:101BE00042EB1C421BEB060658EB0202414146EA5F
:101BF0009E0601D5BDE80189B619524141EB0101AC
:101C0000A3F10103BDE801894FEA14454FEA1147EA
:101C100024EA054621EA074C05FB07F406FB07F713
:101C20000CFB06F105FB0CFC11EB074144EB1744E0
:101C30004FEA124711EB0C4144EB1C4422EA074CDB
:101C400005FB07F206FB07F70CFB06F605FB0CFC91
:101C500016EB074642EB174216EB0C4642EB1C45CF
:101C60006A1854F1000148BF7047B619524141EB60
:101C70000101A3F10103704795F0000F37D04FEA3F
:101C800011424FEA144721EA024624EA074C02FBBC
:101C900007F106FB07F70CFB06F402FB0CFC14EB48
:101CA000074441EB17414FEA154714EB0C4441EB55
:101CB0001C4125EA074C02FB07F506FB07F70CFB66
:101CC00006F602FB0CFC16EB074645EB174516EB38
:101CD0000C4645EB1C42121951F1000148BF7047F8
:101CE000B619524141EB0101A3F1010370474FEADC
:101CF00014454FEA114724EA054621EA074C05FB43
:101D000007F106FB07F70CFB06F24FF0000605FB98
:101D10000CFC12EB074241EB174112EB0C4251EB6A
:101D20001C4148BF7047921841EB0101A3F1010328
:101D30007047000030B50020374908603749086017
:101D4000354908390860364908603649086001207D
:101D5000324908390860002008603349C1F884011D
:101D600003F0BAFB002505E03049485D03F0B4FB01
:101D7000681CC5B2042DF7DB0120284938390860FA
:101D8000002401E0601CC4B20A2CFBDB00202349C4
:101D900038390860012003F09FFB002505E0244945
:101DA000485D03F099FB681CC5B2042DF7DB0120E8
:101DB0001A4938390860002401E0601CC4B20A2CBA
:101DC000FBDB0020154938390860022003F084FB52
:101DD000002505E01749485D03F07EFB681CC5B28D
:101DE000042DF7DB01200D4938390860002401E09B
:101DF000601CC4B20A2CFBDB01200A49091D0860E3
:101E0000002401E0601CC4B20A2CFBDB0020054961
:101E1000091D086030BD00009C012142BC812142A7
:101E2000980123429801224200802142950000201F
:101E3000990000209D00002021B1826842F001023B
:101E4000826003E0826822F001028260704721B163
:101E5000826842F48072826003E0826822F48072B9
:101E60008260704708B50B208DF8000001208DF8C6
:101E700001008DF802008DF80300684600F088FE2E
:101E800008BD21B1826842F48012826003E082685A
:101E900022F4801282607047014600208A6802F0B6
:101EA00004020AB1012000E0002070470146002032
:101EB0008A6802F008020AB1012000E000207047A1
:101EC00030B502460020002350680F4C20400D79A9
:101ED0000C6844EA05242043506090680B4C204075
:101EE000D1E902542C434D7944EA450420439060E3
:101EF000D06A20F470000C7C641EE4B2234340EAF4
:101F00000350D06230BD0000FFFEF0FFFDF7F1FF8F
:101F1000F0B504460D4600200021092D11DDE068D2
:101F2000A5F10A0606EB4607072606FA07F18843DD
:101F3000A5F10A0606EB460603FA06F10843E0603F
:101F40000CE0206905EB4507072606FA07F18843F0
:101F500005EB450603FA06F108432061072A0FDA6C
:101F6000606B561E06EB86071F2606FA07F18843AC
:101F7000561E06EB860605FA06F10843606322E06A
:101F80000D2A0FDA206BD61F06EB86071F2606FAEE
:101F900007F18843D61F06EB860605FA06F10843CB
:101FA000206310E0E06AA2F10D0606EB86071F260B
:101FB00006FA07F18843A2F10D0606EB860605FA3C
:101FC00006F10843E062F0BD816841F008018160DC
:101FD0007047816841F00401816070470021016011
:101FE000017141718160C16001210174704700007D
:101FF00000B587B00121084600F01AFEFFF732FF56
:1020000001214FF4047000F033FE4FF4004000F063
:1020100003FE0121084600F02BFE0121384800F0A4
:10202000C7FC0120ADF8180000208DF81B0003202C
:102030008DF81A0006A9334800F02EFC0023012277
:102040000A213148FFF764FF0020019004904FF40B
:102050004020039000208DF8080001208DF8140026
:1020600000208DF8090001A92748FFF729FF27481C
:1020700000F062FA24484C302549086080158861D8
:1020800000200861234848604FF48060C8618020C8
:102090004861002088604FF48060C860202008629A
:1020A0000002486200208862184800F00AFB012202
:1020B0000221164800F0FCFA0121144800F030FA21
:1020C00001211148FFF7C3FE01210F48FFF7B4FEBD
:1020D0000D48FFF779FF00BF0B48FFF7E7FE012827
:1020E000FAD00948FFF775FF00BF0748FFF7D4FE95
:1020F0000128FAD001210448FFF7C3FE07B000BD54
:1021000004002000001001400024014008000240AB
:10211000C4190020C409002000B589B0002163481B
:10212000FFF78AFE0021624800F0FAF900215F48BB
:10213000FFF78DFE002202215D4800F0B9FA0B2066
:10214000002817DB00F01F0201219140594A430982
:1021500042F8231000BF00BF00BFBFF34F8F00BF86
:1021600000BF00BF00BF00BF00BFBFF36F8F00BF45
:1021700000BF00BF00BF002301220A214B48FFF728
:10218000C7FE0121084600F073FD00214A4800F017
:102190000FFC04A8FFF722FF0020049007904FF4E3
:1021A0004020069000208DF8140001208DF82000BA
:1021B00000208DF8150004A93C48FFF781FE01219D
:1021C000092000F055FD4FF40060ADF80C0003202D
:1021D0008DF80E0048208DF80F0003A9374800F055
:1021E0005BFB0B21002000F037FB4FF400600190F7
:1021F00004208DF8080008208DF8090001208DF8D2
:102200000A0001A800F0A0FA294800F095F9274833
:102210004C302B49086080158861002008612948EE
:1022200048604FF48060C861802048610020886069
:102230004FF48060C86020200862000248620020DD
:1022400088621B4800F03DFA01220221184800F084
:102250002FFA0121164800F063F901211348FFF716
:10226000F6FD01211148FFF7E7FD0B2001F0EDFD20
:10227000012202210E4800F01BFA0C48FFF7A4FED1
:1022800000BF0A48FFF712FE0128FAD00748FFF7FF
:10229000A0FE00BF0548FFF7FFFD0128FAD001218D
:1022A0000248FFF7EEFD09B000BD00000024014028
:1022B0000800024080E100E0040020000008014026
:1022C000C4190020C409002000BFFEE739B1084A44
:1022D0001268012383401A43054B1A6006E0044A42
:1022E0001268012383409A43014B1A607047000033
:1022F0000074004000B585B00121042000F0B8FC56
:102300000121480700F0A4FC3020ADF810000020A7
:102310008DF8130004A90F4800F0BEFA3420009095
:1023200000200190022003906946002000F080F810
:102330006946102000F07CF801210020FFF7C6FF5D
:1023400001211020FFF7C2FF0121102000F004F846
:1023500005B000BD0008014041B1094A12684FF4C0
:10236000805383401A43064B1A6007E0044A126800
:102370004FF4805383409A43014B1A60704700002A
:102380000074004000B58BB00121022000F050FC29
:102390000F4800900F480190102002908001039098
:1023A0000020049080200590800006908000079017
:1023B000202008900002099000200A9069460648F3
:1023C00000F07FF90121044800F0AAF80BB000BD2D
:1023D000207400401C1A0020440402400EB5012164
:1023E000112000F045FC4FF40070ADF80800032008
:1023F0008DF80A0048208DF80B0002A90B4800F068
:102400004BFA0921022000F027FA4FF400700090E7
:1024100004208DF8040008208DF8050001208DF8B7
:102420000600684600F090F90EBD00000010014063
:1024300030B5002200230A4C226840F6FE74844026
:10244000A243D1E900452C438D682C43CD6844EA72
:10245000050303FA00F42243014C226030BD000062
:102460000074004010B50446FFF744FFFFF7B6FFC5
:1024700000200D4908600FE00B48006834F8100098
:1024800000EB00400949084A126841F8220006485A
:102490000068401C0449086003480068B0F5806F7C
:1024A000EAD3FFF76FFF10BDB40000201C1A002014
:1024B00010B5022000F0E6F848B101200449087088
:1024C0000021044801F00EFA022000F01BF810BDB4
:1024D000680000200034014010B5074800F0D2F831
:1024E00048B10120054908700021054801F0FAF9BA
:1024F000014800F007F810BD00000210690000203C
:102500000034014000F0805111B10349086001E03E
:102510000249486070470000040402400000024085
:1025200021B1026842F00102026004E002684FF645
:10253000FE731A400260704701684FF6FE72114048
:1025400001600021016041608160C1604B498842A7
:1025500008D14A490839496841F00F01474A083A09
:1025600051608AE045491431884208D1434908390D
:10257000496841F0F001414A083A51607DE03F4925
:102580002831884208D13D490839496841F47061D1
:102590003A4A083A516070E038493C31884208D1E3
:1025A00036490839496841F47041344A083A516063
:1025B00063E032495031884208D1304908394968CE
:1025C00041F470212D4A083A516056E02B4964319C
:1025D000884208D129490839496841F47001274ADD
:1025E000083A516049E025497831884208D12349A9
:1025F0000839496841F07061204A083A51603CE06E
:102600001F49884206D1011F096841F00F01021FCE
:10261000116032E01A491431884208D11849091F63
:10262000096841F0F001164A121F116025E01449B3
:102630002831884208D11249091F096841F47061A4
:102640000F4A121F116018E00D493C31884208D131
:102650000B49091F096841F47041094A121F1160B2
:102660000BE007495031884207D10549091F096825
:1026700041F47021024A121F1160704708000240A5
:102680000804024001460020002201F0805313B1EB
:10269000054B1A6801E0054B1A6802EA01030BB109
:1026A000012000E0002070470004024000000240CA
:1026B0001AB103680B43036002E003688B430360B5
:1026C000704710B50022026847F6F0739A430C6A0F
:1026D0008B6823430C6923434C6923438C69234350
:1026E000CC6923434C6A23438C6A23431A43026018
:1026F000CB6843600B6883604B68C36010BD704754
:1027000000B5034603E04FF47A7000F005F8181E98
:10271000A3F10103F7D100BD00EBC001C9004FF0E8
:10272000E0225161002191610521116100BF4FF04C
:10273000E021096901F480310029F8D004214FF02B
:10274000E022116170470000002123498279002AAC
:102750003AD00A46126803689A430B461A600A1D6B
:10276000126803689A430B1D1A60027911440A68C3
:1027700003681A430A60184A0832126803689A43C9
:10278000154B08331A601A1D126803689A43124BDE
:102790000C331A604279102A0ED11A1F126803688E
:1027A0001A430D4B08331A601A1D126803681A4346
:1027B000094B0C331A600DE00749427911440A684D
:1027C00003681A430A6005E0027911440A68036845
:1027D0009A430A6070470000000401402DE9F04769
:1027E00082468946504603F064F90746154A164B5F
:1027F00003F0AEF9054603F02FF904461349CC71F6
:10280000200A8871200C4871200E0871484603F098
:1028100050F907460E4A0F4B03F09AF9054603F0AC
:102820001BF90446B4F5804F01D343F6FF74C4F39B
:102830000D0406494C70200A087001F033F9BDE818
:10284000F087000095D626E80B2E1140A10000204D
:102850004685A059C842364030B500228B071C0F70
:102860000F2303FA04F20B4B8C1053F824309343DC
:10287000084C8D1044F8253023468C1053F8243032
:102880008C07240F00FA04F42343024C8D1044F803
:10289000253030BD080001402DE9F04102460025F9
:1028A0000026002000230024002791F803C00CF02C
:1028B0000F0591F803C00CF0100CBCF1000F03D011
:1028C00091F802C04CEA050591F800C0BCF1000F78
:1028D00031D0146800202BE04FF0010C0CFA00F30B
:1028E000B1F800C00CEA03069E4220D183004FF0ED
:1028F0000F0C0CFA03F7BC4305FA03FC4CEA040482
:1029000091F803C0BCF1280F06D14FF0010C0CFA6E
:1029100000FCC2F814C00AE091F803C0BCF1480FF3
:1029200005D14FF0010C0CFA00FCC2F810C0401C9D
:102930000828D1D31460B1F800C0BCF1FF0F34DD1A
:10294000546800202EE000F1080C4FF0010808FA4E
:102950000CF3B1F800C00CEA03069E4221D18300BB
:102960004FF00F0C0CFA03F7BC4305FA03FC4CEADA
:10297000040491F803C0BCF1280F05D100F1080C44
:1029800008FA0CF8C2F8148091F803C0BCF1480FA3
:1029900007D100F1080C4FF0010808FA0CF8C2F852
:1029A0001080401C0828CED35460BDE8F0810000A0
:1029B000F0B50A46002300240021002500F000465F
:1029C000B6F1004F02D11D4EF16901E01B4E716856
:1029D000C0F3034583B200F44016B6F5401F08D19A
:1029E00021F07061154E766826F07066134F7E6098
:1029F00012E000F48016B6F5801F06D1032606FA11
:102A000005F4A14341F0706106E0460D360103FA7A
:102A100006F6B14341F0706122B1460D360103FA6A
:102A200006F6314300F00046B6F1004F02D1034EE6
:102A3000F16101E0014E7160F0BD00000000014055
:102A4000416170470161704708B50121042000F021
:102A50000FF90121082000F00BF90121102000F0EE
:102A600007F90121402000F003F9A020ADF8000093
:102A700010208DF8030003208DF8020069460D48F0
:102A8000FFF70AFF4AF20210ADF8000069460A4853
:102A9000FFF702FFD020ADF8000069460748FFF7B6
:102AA000FBFE4020ADF8000069460548FFF7F4FE44
:102AB00008BD000000080140000C0140001001406A
:102AC0000018014000BFFEE710B5044800F016FFF3
:102AD000401C034991FBF0F010BD000000040040D1
:102AE00040420F0000B587B00121022000F0B0F88D
:102AF0000121042000F0BCF848208DF81B00402084
:102B0000ADF8180003208DF81A0006A91C48FFF73D
:102B1000C3FE1C4800F0F5FE0020ADF81200ADF831
:102B20000E004FF6FF70ADF810004720ADF80C0016
:102B300000208DF8140003A9124800F061FF002066
:102B4000ADF800000F20ADF808000020ADF802003D
:102B5000ADF806000120ADF804006946094800F010
:102B6000D6FE5021074800F010FF0421054800F070
:102B700027FF0121034800F0B5FE07B000BD0000AB
:102B8000000801400004004000BFFEE7704700005D
:102B900070B5002100230F22C47804B3154C2468BB
:102BA00004F4E064C4F5E064210AC1F10403CA40FE
:102BB000447804FA03F184781440214309010E4C4F
:102BC0000678A155047804F01F050124AC4005786F
:102BD0006D11AD0005F1E025C5F8004109E004786C
:102BE00004F01F050124AC40044D0678761145F829
:102BF000264070BD0CED00E000E400E080E100E064
:102C000002490143024A1160704700000000FA05C2
:102C10000CED00E07047000001460020034A5068B8
:102C200020F440400843506070470000001002400C
:102C300029B1064A52690243044B5A6104E0034A2F
:102C400052698243014B5A617047000000100240F4
:102C500029B1064AD2690243044BDA6104E0034A0F
:102C6000D2698243014BDA617047000000100240D4
:102C700029B1064A92690243044B9A6104E0034A6F
:102C800092698243014B9A61704700000010024034
:102C900030B500210022002400232D4D6D6805F081
:102CA0000C0121B1042905D0082923D105E0294DC3
:102CB000056022E0274D05601FE0254D6D6805F495
:102CC0007012234D6D6805F48034022505EB9242A5
:102CD0001CB9214D554305600BE01D4D6D6805F491
:102CE00000351DB11C4D5543056002E0194D55439B
:102CF000056002E0174D056000BF00BF144D6D6810
:102D000005F0F0010909154D6B5C0568DD40456073
:102D10000F4D6D6805F4E061090A104D6B5C456864
:102D2000DD4085600A4D6D6805F46051C90A0B4DA0
:102D30006B5C4568DD40C560054D6D6805F440413C
:102D4000890B074D6B5CC568B5FBF3F5056130BDBC
:102D50000010024000127A0000093D00000000202F
:102D60001000002008B501210820FFF781FF102086
:102D70008DF803008020ADF8000003208DF80200DC
:102D800069460248FFF788FD08BD0000000C0140BD
:102D900010B580210148FFF753FE10BD000C014023
:102DA00010B580210148FFF74DFE10BD000C014019
:102DB0007047000000B587B001218803FFF758FF76
:102DC00001210420FFF754FF18208DF81B004FF459
:102DD0000070ADF8180003208DF81A0006A92148EC
:102DE000FFF75AFD48208DF81B004FF48060ADF8C6
:102DF000180003208DF81A0006A91A48FFF74CFDA9
:102E00004FF4E13002900020ADF814000C20ADF832
:102E100012000020ADF81000ADF80E00ADF80C0067
:102E200002A9114800F086FF012240F225510E4808
:102E300000F05AFF4FF4A060FFF7E2FE25208DF866
:102E4000040001208DF807008DF805008DF80600BC
:102E500001A8FFF79DFE0121034800F002FF07B023
:102E600000BD000000080140003801400FB400B56B
:102E70009BB01DA8019002A8019A1C99FDF7E2FAE7
:102E80000020019002A800F0C1FB1BB05DF814FB0C
:102E900005480078012804D100200349087001206A
:102EA00070470020FCE700008600002000B587B0D6
:102EB0000121C804FFF7CCFE01211020FFF7D8FE46
:102EC00018208DF81B004FF48060ADF81800032027
:102ED0008DF81A0006A92248FFF7DEFC48208DF87D
:102EE0001B004FF40060ADF8180003208DF81A00A5
:102EF00006A91B48FFF7D0FC4FF4165002900020A3
:102F0000ADF814000C20ADF812000020ADF8100050
:102F1000ADF80E00ADF80C0002A9124800F00AFF4F
:102F2000012240F225510F4800F0DEFE4FF4A06070
:102F3000FFF766FE34208DF8040001208DF80700AD
:102F400000208DF8050001208DF8060001A8FFF78C
:102F50001FFE0121034800F084FE07B000BD000001
:102F600000100140004C004010B5044621460548C1
:102F700000F051FF00BF8021024800F07EFE0028D3
:102F8000F9D010BD004C004010B5002405E0044904
:102F9000085DFFF7E9FF601CC4B2042CF7DB10BD2D
:102FA0008000002010B5002405E00449085DFFF70B
:102FB000DBFF601CC4B2062CF7DB10BD74000020E0
:102FC00010B50446FFF7EEFF2046FFF7CDFFFFF7F1
:102FD000DBFF10BD10B504461F20FFF7F1FF012CE9
:102FE0003FD1EE20FFF7C0FFB120FFF7BDFF10205B
:102FF000FFF7BAFF0020FFF7B7FF0020FFF7B4FF8D
:103000000020FFF7B1FF1F20FFF7AEFFB520FFF74D
:10301000ABFFCD20FFF7A8FFCD20FFF7A5FFA8202D
:10302000FFF7A2FFC220FFF79FFFCB20FFF79CFF17
:10303000B220FFF799FFA820FFF796FFC620FFF701
:1030400093FFF720FFF790FFFF20FFF78DFFFC2095
:10305000FFF78AFFFF20FFF787FFFF20FFF784FFBE
:10306000FEE0022C3FD1EE20FFF77EFFB120FFF7FC
:103070007BFF1020FFF778FF0020FFF775FF00208F
:10308000FFF772FF0020FFF76FFF1F20FFF76CFFB5
:10309000B820FFF769FFDF20FFF766FFCD20FFF7BD
:1030A00063FFA820FFF760FFC220FFF75DFFCB2082
:1030B000FFF75AFFB220FFF757FFA820FFF754FF92
:1030C000C620FFF751FFF720FFF74EFFFF20FFF765
:1030D0004BFFFC20FFF748FFFF20FFF745FFFF20D5
:1030E000FFF742FFBCE0032C3FD1EE20FFF73CFF8F
:1030F000B120FFF739FF1020FFF736FF0020FFF760
:1031000033FF0020FFF730FF0020FFF72DFF1F20C7
:10311000FFF72AFFB420FFF727FFF820FFF724FF6F
:10312000CD20FFF721FFA820FFF71EFFC220FFF7E9
:103130001BFFCB20FFF718FFB220FFF715FFA820D9
:10314000FFF712FFC620FFF70FFFF720FFF70CFF76
:10315000FF20FFF709FFFC20FFF706FFFF20FFF726
:1031600003FFFF20FFF700FF7AE0042C3FD1EE20A1
:10317000FFF7FAFEB120FFF7F7FE1020FFF7F4FE8D
:103180000020FFF7F1FE0020FFF7EEFE0020FFF722
:10319000EBFE1F20FFF7E8FEB420FFF7E5FEF82066
:1031A000FFF7E2FED720FFF7DFFEE820FFF7DCFEA7
:1031B000C220FFF7D9FECB20FFF7D6FEB220FFF7E3
:1031C000D3FEA820FFF7D0FEC620FFF7CDFEF720E4
:1031D000FFF7CAFEFF20FFF7C7FEFC20FFF7C4FE83
:1031E000FF20FFF7C1FEFF20FFF7BEFE38E0EE2014
:1031F000FFF7BAFEB120FFF7B7FE1020FFF7B4FECD
:103200000020FFF7B1FE0020FFF7AEFE0020FFF721
:10321000ABFE1F20FFF7A8FEC520FFF7A5FED020BC
:10322000FFF7A2FEB620FFF79FFECF20FFF79CFE20
:10323000CA20FFF799FEA720FFF796FEB020FFF700
:1032400093FEDC20FFF790FEFF20FFF78DFEFC20B1
:10325000FFF78AFEFF20FFF787FEFF20FFF784FEBF
:1032600010BD000070B505460C462846FFF7A8FEC5
:10327000B4F57A7F26D2FFF795FE2846FFF774FE55
:103280006420B4FBF0F03030C6B23046FFF76CFE7D
:103290006420B4FBF0F100FB11400A21B0FBF1F017
:1032A00000F130063046FFF75FFE0A20B4FBF0F174
:1032B00000FB114000F130063046FFF755FEFFF7E6
:1032C00063FE38E142F21070844235D2FFF76AFEA5
:1032D0002846FFF749FE4FF47A70B4FBF0F0303027
:1032E000C6B23046FFF740FE4FF47A70B4FBF0F1FF
:1032F00000FB11406421B0FBF1F03030C6B2304623
:10330000FFF732FE6420B4FBF0F100FB11400A210C
:10331000B0FBF1F000F130063046FFF725FE0A2041
:10332000B4FBF0F100FB114000F130063046FFF72E
:103330001BFEFFF729FEFEE07F48844244D2FFF7E0
:1033400031FE2846FFF710FE42F21070B4FBF0F099
:103350003030C6B23046FFF707FE42F21070B4FBC1
:10336000F0F100FB11404FF47A71B0FBF1F0303016
:10337000C6B23046FFF7F8FD4FF47A70B4FBF0F1B7
:1033800000FB11406421B0FBF1F03030C6B2304692
:10339000FFF7EAFD6420B4FBF0F100FB11400A21C5
:1033A000B0FBF1F000F130063046FFF7DDFD0A20FA
:1033B000B4FBF0F100FB114000F130063046FFF79E
:1033C000D3FDFFF7E1FDB6E05C48844251D2FFF740
:1033D000E9FD2846FFF7C8FD5748B4FBF0F0303050
:1033E000C6B23046FFF7C0FD5348B4FBF0F100FB16
:1033F000114042F21071B0FBF1F03030C6B23046ED
:10340000FFF7B2FD42F21070B4FBF0F100FB114087
:103410004FF47A71B0FBF1F03030C6B23046FFF7AE
:10342000A3FD4FF47A70B4FBF0F100FB114064216E
:10343000B0FBF1F03030C6B23046FFF795FD6420A6
:10344000B4FBF0F100FB11400A21B0FBF1F000F1F8
:1034500030063046FFF788FD0A20B4FBF0F100FB90
:10346000114000F130063046FFF77EFDFFF78CFD7E
:1034700061E0334884425ED2FFF794FD2846FFF7AF
:1034800073FD2E48B4FBF0F03030C6B23046FFF783
:103490006BFD2A48B4FBF0F100FB114042F21071C1
:1034A000B0FBF1F03030C6B23046FFF75DFD224888
:1034B000B4FBF0F100FB114042F21071B0FBF1F0EF
:1034C0003030C6B23046FFF74FFD42F21070B4FB09
:1034D000F0F100FB11404FF47A71B0FBF1F03030A5
:1034E000C6B23046FFF740FD4FF47A70B4FBF0F1FE
:1034F00000FB11406421B0FBF1F03030C6B2304621
:10350000FFF732FD6420B4FBF0F100FB11400A210B
:10351000B0FBF1F000F130063046FFF725FD0A2040
:10352000B4FBF0F100FB114000F130063046FFF72C
:103530001BFDFFF729FD70BDA086010040420F0072
:103540008096980070B505460C462846FFF738FD72
:10355000FFF728FD2846FFF707FD642094FBF0F0F5
:103560003030C6B23046FFF7FFFC2E20FFF7FCFCE0
:10357000642094FBF0F100FB11400A2190FBF1F074
:103580003030C6B23046FFF7EFFC0A2094FBF0F172
:1035900000FB11403030C6B23046FFF7E5FCFFF7C4
:1035A000F3FC70BD70B505460C462846FFF708FDD4
:1035B000FFF7F8FC2846FFF7D7FC0A2094FBF0F051
:1035C0003030C6B23046FFF7CFFC2E20FFF7CCFCE0
:1035D0000A2094FBF0F100FB11403030C6B23046B7
:1035E000FFF7C2FCFFF7D0FC70BD000010B5044629
:1035F0002146054800F00FFC00BF8021024800F082
:103600003CFB0028F9D010BD0038014070B50446DD
:10361000002504E0605DFFF7E9FF681CC5B2605D4E
:103620000028F7D170BD10B500F002F810BD000001
:103630000CB50020019000903348006840F48030C1
:103640003149086000BF3048006800F40030009045
:103650000198401C0190009818B90198B0F5A06F2E
:10366000F1D12948006800F4003010B10120009029
:1036700001E0002000900098012843D12348006811
:1036800040F01000214908600846006820F003005F
:1036900008600846006840F0020008601A48406868
:1036A000194948600846406848600846406840F448
:1036B000806048600846406820F47C1048600846F6
:1036C000406840F4E81048600846006840F08070A8
:1036D000086000BF0C48006800F000700028F9D0B6
:1036E0000948406820F003000749486008464068E0
:1036F00040F00200486000BF0348406800F00C0042
:103700000828F9D10CBD0000001002400020024042
:103710007047000010B51348006840F001001149DF
:10372000086008464068104908400E49486008464D
:1037300000680E4908400B4908600846006820F4FC
:10374000802008600846406820F4FE0048604FF47E
:103750001F008860FFF767FF4FF0006004490860B2
:1037600010BD0000001002400000FFF8FFFFF6FE51
:1037700008ED00E0F0B50C46154600220021068C4D
:103780004FF6FE773E400684028B018C4FF60C7696
:1037900032407E1C06EA03162E433243104EB042DE
:1037A0000ED0104EB0420BD0B0F1804F08D00E4E6C
:1037B000B04205D00D4EB04202D00D4EB04206D1FF
:1037C0004FF6FD76314044F00106314305E04FF6F7
:1037D000F576314044F00106314302830184F0BDA7
:1037E000002C01400034014000040040000800406B
:1037F000000C0040F0B50C461546002200210026C2
:10380000078C4FF6EF7C07EA0C070784028B018CCC
:103810004FF6FF7707EA041640F6FF473A404FF6A7
:10382000FF7707EA03373A434FF6FF7707EA0527A2
:103830003A43114FB8420ED0104FB8420BD0B0F1FE
:10384000804F08D00E4FB84205D00E4FB84202D07C
:103850000D4FB84206D14FF6DF77394046F01007DA
:10386000394305E04FF65F77394044F0100739439C
:1038700002830184F0BD0000002C014000340140AF
:103880000004004000080040000C00403EB5054622
:103890000C4601214803FFF7EBF9114800F031F81D
:1038A00080210F4800F07AF8681E80B2ADF804005D
:1038B000601E80B2ADF800000020ADF80600ADF843
:1038C00002008DF808006946054800F099F82021AB
:1038D000034800F06CF80121014800F003F83EBDF8
:1038E0000034014021B1028842F00102028004E06C
:1038F00002884FF6FE731A40028070470146888E98
:10390000704701894FF6F8721140018170472DE927
:10391000F04105460C4600260127608808B90226BA
:1039200000E00026A088012801D1022700E001273D
:103930002088A0B92389A28861882846FFF71AFF4A
:10394000E188284600F045F823893A463146284662
:10395000FFF750FFE188284600F044F813E0238980
:10396000A28861882846FFF745FFE188284600F0D5
:1039700039F823893A4631462846FFF7FBFEE188AD
:10398000284600F026F8BDE8F0810A4600210189AA
:103990004FF68F73194011430181704702894FF62A
:1039A0007F731A40028102890A430281704782882C
:1039B0004FF68F731A40828082880A438280704754
:1039C00002894FF6F8731A40028102890A43028184
:1039D0007047028B4FF6F3731A400283028B0A433F
:1039E00002837047028B4FF2FF331A400283028B2F
:1039F0004FF6FF7303EA01231A4302837047000066
:103A0000002202881D4B98420ED01D4B98420BD0CD
:103A1000B0F1804F08D01B4B984205D01A4B98420A
:103A200002D01A4B984204D14FF68F731A404B883C
:103A30001A43174B984207D0164B984204D04FF6C2
:103A4000FF431A40CB881A4302808B8883850B88FA
:103A500003850A4B98420BD0094B984208D00E4B75
:103A6000984205D00D4B984202D00D4B984201D19F
:103A70000B7A03860123838270470000002C0140EB
:103A8000003401400004004000080040000C0040E9
:103A9000001000400014004000400140004401407C
:103AA0000048014010B500200C4908600E2001F0CC
:103AB00013FD002405E00A49085D01F00DFD601CBE
:103AC000C4B2082CF7DB0120044908600549C1F89D
:103AD0009C0100200449086010BD0000848121423F
:103AE000A1000020000022429C01224210B540F2B9
:103AF00025513C4800F0CEF8012871D1394800F03A
:103B000085F9C4B23848007840B9FE2C27D101208D
:103B10003549087000203549087020E032480078A7
:103B2000012810D132483149097844542F4800788F
:103B3000401C2E4908700846007802280FDB02203E
:103B4000294908700BE028480078022807D1FF2C8B
:103B500005D1002024490870012026490870264814
:103B6000007828B9042C35D101202349087031E0B0
:103B70002148007801280AD1112C2BD102201E499E
:103B8000087000201D4908701D49087022E01A487D
:103B90000078022812D11B48184909784454184863
:103BA0000078401C1649087014480078401C1349DE
:103BB00008707CB90320104908700BE00E480078AB
:103BC000032807D1FF2C05D100200B4908700120E4
:103BD0000D49087040F22551024800F033F800BF4B
:103BE00010BD0000004C0040910000209200002019
:103BF0008400002086000020930000209400002014
:103C00008F000020870000209000002010B540F2B7
:103C10002551094800F03EF801280CD1064800F073
:103C2000F5F80649087001200549087040F2255151
:103C3000014800F007F810BD003801406A0000207C
:103C40006B00002010B50022002340F66A14A14248
:103C500000D100BF0A1201249440A3B2DC430480C7
:103C600010BD21B1828942F40052828104E0828930
:103C70004DF6FF731A408281704702460020B1F56D
:103C8000007F00D100BF13880B400BB1012000E082
:103C90000020704770B50246002400230025002054
:103CA00040F66A16B14200D100BFC1F3421501F0DF
:103CB0001F03012606FA03F3012D02D19689334032
:103CC00006E0022D02D1168A334001E0968A334085
:103CD0000C12012606FA04F41688344013B10CB114
:103CE000012000E0002070BDF0B50346002400264E
:103CF0000025002040F66A17B94200D100BF1846DF
:103D0000C1F3421401F01F06012707FA06F5012C42
:103D100001D10C3004E0022C01D1103000E014304D
:103D20001AB107682F43076002E00768AF430760D6
:103D3000F0BD00002DE9F04786B005460E46002490
:103D4000A24600BFA1460027B08900B100BF2F46A0
:103D50002C8A4CF6FF700440F08804432C82AC8916
:103D60004EF6F3100440B088318908437189084346
:103D70000443AC81AC8A4FF6FF400440B089044351
:103D8000AC8201A8FEF784FF1F48874202D1DDF80C
:103D900010A001E0DDF80CA0A88900F4004040B1BB
:103DA0000AEBCA0000EB0A1031684900B0FBF1F8D9
:103DB00007E00AEBCA0000EB0A1031688900B0FB8B
:103DC000F1F86420B8FBF0F004012009642101FB44
:103DD0001089A88900F4004040B1322000EBC900EE
:103DE000B0FBF1F000F00700044308E0322000EBE4
:103DF00009106421B0FBF1F000F00F0004432C81A6
:103E000006B0BDE8F0870000003801400146888810
:103E1000C0F308007047C1F308028280704700BFFA
:103E2000FEE7490050EAC12018BF04204A0D18BF20
:103E300040F0010040F2FF72B2EB515F08BF40F06A
:103E40000200012808BF05207047002809DB00F0A8
:103E50001F02012191404209920002F1E022C2F8C2
:103E60000011704730380A2801D201207047002025
:103E7000704700002DE9F0410446322C0FD9962CF2
:103E80000DD84E48006802F067F905464C4A4D4B84
:103E900001F0A6FB074601F071FBBDE8F081962C0E
:103EA0000FD9FA2C0DD84548006802F055F905469F
:103EB0004FF03332444B01F093FB074601F05EFBB9
:103EC000EBE7FA2C0FD9B4F5AF7F0CD83B4800686C
:103ED00002F042F9054600223C4B01F081FB074607
:103EE00001F04CFBD9E7B4F5AF7F0FD9B4F5E17F12
:103EF0000CD83248006802F02FF90546344A354B99
:103F000001F06EFB074601F039FBC6E7B4F5E17F2F
:103F100010D940F2262084420CD82848006802F0CC
:103F20001BF905462A4A2C4B01F05AFB074601F0C3
:103F300025FBB2E740F22620844210D940F28A20C5
:103F400084420CD81D48006802F006F90546204A54
:103F5000224B01F045FB074601F010FB9DE740F2C4
:103F60008A20844211D940F2EE2084420DD81348B1
:103F7000006802F0F1F805464FF03332184B01F0BB
:103F80002FFB074601F0FAFA87E740F2EE20844261
:103F900011D940F2523084420DD80848006802F02E
:103FA000DBF805464FF033320E4B01F019FB0746A4
:103FB00001F0E4FA71E70C486FE700009009002077
:103FC0009A9999999999114033331F400080244060
:103FD000CDCCCCCCCCCC2640CCCC2840CCCC2940B1
:103FE00033B32A4033332B4066665A412DE9F14FF3
:103FF00088B03249089802F0A7FA07903048016863
:104000003048006802F0A0FA01460390079802F0D9
:104010003DF982462A4801682A48006802F094FA6D
:1040200001460390079802F031F98346514602F0A9
:104030008BFA059023480168079802F027F902904F
:1040400020480168079802F021F90190029902F0D6
:104050007BFA83464FF07E5102F073FB824619488B
:104060000168079802F012F9029016480168079853
:1040700002F00CF90190029902F066FA83464FF0C3
:104080007E5102F05EFB5146039002F05DFA04900F
:10409000059902F08DF8069002F05EF8064601F0F0
:1040A000DFF9044622460B460020074901F04CFB8D
:1040B000804601F063FA09B0BDE8F08FDB0FC9401C
:1040C000BC000020C0000020000014402DE9F04199
:1040D000044600202E49088041F203002D49088043
:1040E00001202D49088020E02B48008834F810007A
:1040F00027490988884205DD2748008834F81000E0
:10410000234908802448008834F810002149098890
:10411000884205DA2048008834F810001D490880DC
:104120001D480088401C1C4908801B480088B0F5C9
:10413000806FD9DB16490988164A1288881A02F05E
:10414000A3F90746154902F0A1F80646144902F002
:10415000FBF9054602F078F9124908800C480088FE
:104160000C490988451805EBD571481002F08CF907
:1041700080460A4902F08AF80746094902F0E4F944
:10418000064602F061F908490880BDE8F0810000A8
:10419000280000202A0000201800002000F07F45A1
:1041A00000404E452C0000202E0000202DE9F04F4D
:1041B0008FB08346894692461C461A9802F07CF9D5
:1041C00005464FF0804102F0BFF97F49086008467C
:1041D0000168006802F0B8F97C4908607A48016813
:1041E000189802F0B1F9064678480168204602F0B6
:1041F000ABF90746314601F0DBFF0546199901F09E
:10420000D7FF734908604FF08040199902F09CF97C
:10421000064621464FF0404002F096F907466B48AB
:104220000168384602F090F90546314601F0C0FFBA
:104230006849086064480168189802F085F90646E4
:1042400062480168204602F07FF90746314602F0D5
:104250000BFB0546199901F0ABFF5F4908605A480E
:104260000168484602F070F9064658480168584609
:1042700002F06AF90746314601F09AFF05465146B9
:1042800001F096FF5549086051464FF0804002F01A
:104290005BF906464FF04041584602F055F9074693
:1042A0004A480168384602F04FF90546314601F0A8
:1042B0007FFF4B49086044480168484602F044F9D2
:1042C000064642480168584602F03EF90746314624
:1042D00002F0CAFA0546514601F06AFF41490860FA
:1042E0003B4801683D48006801F0D0FF3B49086049
:1042F000374801683A48006801F0C8FF384908604B
:10430000334801683748006801F0C0FF354908604C
:104310002F4801682F48006801F0B8FF2D49086058
:104320002B4801682C48006801F0B0FF2A4908605A
:104330002A4800682C4908602948006848602948D4
:10434000006888602348006880F00040C860224808
:10435000006880F000400861086901F0FDFE054634
:104360000E462149C86801F0F7FE074688461E49F7
:10437000886801F0F1FECDE90C011B49486801F0A5
:10438000EBFECDE90A011849086801F0E5FECDE928
:104390000478CDE90656CDE90801DDE90C01CDE947
:1043A0000201DDE90A01CDE9000110A0DDE90823E1
:1043B000FEF75CFD154B0C4A01211548FCF736F859
:1043C0000FB0BDE8F08F0000480000204C00002036
:1043D0005000002054000020580000205C00002005
:1043E0006000002064000020340000207B252E386F
:1043F000662C252E38662C252E38662C252E386600
:104400002C252E38667D3B0A0D0A0000B4090020D9
:104410009409002094B0FEF7CDFC01210846FEF778
:1044200007FCFDF71FFDFDF7E3FD0121B420FFF7B9
:104430002DFAFEF797FCFEF739FDFEF753FBFEF76A
:1044400003FBFDF777FC4FF4967142F21070FEF714
:10445000C5F9FEF7A5FCFCE3FEF71AFD0028FAD02B
:10446000FE480078C12806D1FD49FE48006801F0E9
:104470009FFEFC490860F9480078C02806D1F84939
:10448000F848006802F0F0F9F6490860F34800784F
:10449000A1286BD1F1484078A02805D1F2480068E6
:1044A0006438F14908602BE0EC484078A12805D138
:1044B000ED4800686430EC49086021E0E748407846
:1044C000A2281DD10020E8490860E849088010E0D2
:1044D000E748E6490988405C3038E34909680A2220
:1044E00002FB0100E0490860E0480088401CDF4909
:1044F0000880E0480078401EDC4909888842E7DCF3
:10450000D9480068642804D14FF41670DA4908606D
:104510001FE0D5480068C82803D14000D64908608C
:1045200017E0D1480068B0F5967F04D14FF4AF7022
:10453000D14908600DE0CC480068B0F5C87F04D1CF
:104540004FF4A570CC49086003E04FF49670CA4957
:104550000860C54801680420FEF784FEFDF7EAFB09
:10456000C5480168C0480068FEF738F9BB480078C4
:10457000A22817D1B9484078A02805D1BF480088A3
:10458000401EBE49088008E0B4484078A12804D104
:10459000BA480088401CB9490880B84801880720FB
:1045A000FFF700F8AD480078A0287DD1AE4800683C
:1045B00001F082FF0C90FFF719FD0D9001F0CCFD8A
:1045C000CDE91001AD48008801F076FF0B9001F0B5
:1045D000C3FD0022AA4BCDE90C0101F0B9FACDE9E7
:1045E0000E01DDE9102301F0AFF8CDE9120100F072
:1045F000C5FFA44908609C480068FFF73BFC0146E2
:104600001390A048006801F041FE9E4908600846EA
:10461000006801F0A1FD00229B4BCDE9100100F0E4
:10462000DFFFCDE9120101F0E7F998490860FDF7D5
:1046300081FB964801688C480068FEF7CFF88A48ED
:10464000006801F039FF0B90FFF7D0FC90490C9007
:1046500001F07AFF0D9001F07FFD00228A4BCDE939
:104660000E0100F0BDFFCDE9100101F0C5F980B2E7
:10467000014613902120FEF765FF8448006801F091
:104680001BFF0C9078480068FFF7F4FB0B900C9927
:1046900001F05AFF0D9001F05FFD00227A4BCDE949
:1046A0000E0100F09DFF00E008E0CDE9100101F0EF
:1046B000A3F9014613902320FEF7D4FD6748007844
:1046C000B0287CD1002073490860FDF733FBC82176
:1046D0006420FEF783F84FF49670FEF711F800207F
:1046E000139062E06C49139851F82000B0F5FA7FFE
:1046F00009D200216948FFF7F5F801214FF4B460B1
:10470000FFF7C4F807E000216448FFF7EBF8012148
:10471000B420FFF7BBF8FDF70DFB5F49139851F884
:104720002000C8211290FEF759F86420FDF7E8FF39
:1047300000205B49087001215848FFF7D3F800BFFB
:10474000574800780028FBD05648FFF7BFFC524975
:10475000139851F820000F90FFF78CFB52491090EE
:1047600001F0F2FE12905148008801F0A5FE119070
:10477000129901F08BFD4E49086008464D4A0168C8
:10478000139842F82010434801684948006801F036
:10479000A7FF06D2464800683E490860464913987C
:1047A00008801398401C80B21390444909881398DC
:1047B000884297DB4FF07E513648006800E0FDE309
:1047C00001F08EFF03D24FF07E50324908603C4921
:1047D0003048006801F0B8FE3A4908603548406842
:1047E0001190344800681090119901F0E1FC12908A
:1047F0003048806801461190129801F0D9FC324986
:10480000139001F043FD314908602C480088801E58
:10481000284951F82000119028480088C01E51F8FE
:1048200020001090119901F0C3FC129023480088D9
:10483000401E204951F8200001461190129801F0C5
:10484000B7FC2149139001F021FD2149086011486E
:10485000006801F081FC1F4A1F4B3FE084000020EC
:104860000AD7A33C90090020C40000208E09002034
:10487000870000208F000020D4000020C800002006
:1048800000005940CC0000200000E03FD000002094
:104890000000C84224090020D80000200034014054
:1048A00068000020C4090020000048432C000020BC
:1048B000340900201C2A002028090020200900209B
:1048C000F4FD343F40090020000040403C09002036
:1048D00038090020CDCCCCCCCCCCE43FCDE90E01C6
:1048E00001F036F9CDE91201FE48006801F034FC10
:1048F000CDE91001DDE9122301F028FA1AD2FA48B5
:10490000006801F029FCF94AF94BCDE90E0101F0EC
:104910001FF9CDE91201F748006801F01DFCCDE94F
:104920001001DDE9122301F0D7F803D20120F2498A
:10493000087097E0EC48006801F00EFC4FF033324D
:10494000EE4BCDE90E0101F003F9CDE91201E54886
:10495000006801F001FCCDE91001DDE9122301F04E
:10496000BBF81AD2E048006801F0F6FBDF4AE04BE2
:10497000CDE90E0101F0ECF8CDE91201DD48006847
:1049800001F0EAFBCDE91001DDE9122301F0DEF9C7
:1049900003D20220D849087064E0D348006801F0CF
:1049A000DBFB4FF03332D54BCDE90E0101F0D0F8EF
:1049B000CDE91201CB48006801F0CEFBCDE9100132
:1049C000DDE9122301F088F81BD2C748006801F026
:1049D000C3FB4FF03332C94BCDE90E0101F0B8F8FB
:1049E000CDE91201C348006801F0B6FBCDE9100122
:1049F000DDE9122301F070F803D20320BE490870EC
:104A000030E0B948006801F0A7FB0022BC4BCDE9BB
:104A10000E0101F09DF8CDE91201B248006801F0E5
:104A20009BFBCDE91001DDE9122301F08FF919D2CA
:104A3000AD48006801F090FB0022B14BCDE90E01BA
:104A400001F086F8CDE91201AA48006801F084FB64
:104A5000CDE91001DDE9122301F078F902D204203A
:104A6000A5490870A448007803287DD1A54800888E
:104A7000139058E0A449139851F820001290A348CD
:104A80000168129801F02CFE49D81398401E9E49E7
:104A900051F8200012909D480168129801F020FD05
:104AA0003DD21398401E984951F820000E9013985B
:104AB00051F820000D900E9901F0D6FE9449109007
:104AC000139851F82010401E914A52F82000081AFD
:104AD0000C9001F0F1FC0E901398401E8A4951F899
:104AE000200001460C908948006801F0BDFE0D9041
:104AF0000E9901F029FD0F90109901F0C7FB12905B
:104B00001398401E824951F82000109001F0D4FC07
:104B10001190129901F04CFB7E49086006E0139851
:104B2000401E80B2139013981028A3DC00BF754874
:104B30000088139059E07449139851F8200012909E
:104B400072480168129801F0CBFD4AD86E4913985B
:104B5000401C51F8200012906C480168129801F036
:104B6000BFFC3ED2684900E091E01398401C51F828
:104B700020000E90139851F820000D900E9901F02E
:104B800073FE634910901398401C51F82010604A3E
:104B9000139852F82000081A0C9001F08DFC5A4925
:104BA0000E90139851F8200001460C905748006869
:104BB00001F05AFE0D900E9901F0C6FC0F9010996D
:104BC00001F064FB52491290139851F820001090A4
:104BD00001F072FC1190129901F0EAFA4E49086056
:104BE00007E01398401C80B213901398B0F5F97F3A
:104BF000A1DD00BF484801684648006801F0A4FCF8
:104C0000139000F053FC4549086008460168444889
:104C100001F09AFC434908603E4801683E4800683C
:104C200001F022FE014613903C48006801F02EFB83
:104C30003D4908602C4800683C49086039480168D3
:104C40003A48006801F080FC1390374801681398D7
:104C500000E0B7E301F01AFB354908600020354950
:104C60000860354908604FF07E50344908602E488E
:104C700001682C48006801F009FB314908602948A7
:104C80000168006801F060FC2E490860D5E21A480E
:104C9000007804287ED100202B4908801A4800683B
:104CA0002A4908600120139017E01749139851F81A
:104CB0002000129025480168129801F011FC08D2DA
:104CC0001149139851F82000204908601E49139893
:104CD00008801398401C80B213901398AF28E4DB2F
:104CE000002035E03C09002024090020CDCCCCCCAC
:104CF000CCCCE43F38090020B80000203333E33F38
:104D00000000E03F280900201C2A00204009002064
:104D1000D800002044090020480900206C09002028
:104D2000DB0FC940680900206409002070090020D9
:104D300078090020740900207C09002080090020E7
:104D40008409002088090020300900202C09002057
:104D5000FE490860FE490860FE48008813905AE04A
:104D6000FD49139851F820001290FC4801681298F0
:104D700001F0B6FB4BD81398401EF74951F82000BC
:104D80001290F6480168129801F0AAFC3FD21398DD
:104D9000401E00E0F1E0F04951F820000E90139819
:104DA00051F820000D900E9901F05EFDEC49109035
:104DB000139851F82010401EE94A52F82000081AB2
:104DC0000C9001F079FB0E901398401EE24951F8C7
:104DD000200001460C90E148006801F045FD0D906F
:104DE0000E9901F0B1FB0F90109901F04FFA12905B
:104DF0001398401EDA4951F82000109001F05CFB36
:104E00001190129901F0D4F9D049086006E0139886
:104E1000401E80B2139013980128A1DC00BFCD483A
:104E20000088139057E0CC49139851F82000129055
:104E3000CA480168129801F053FB48D8C649139834
:104E4000401C51F820001290C4480168129801F0EB
:104E500047FC3CD2C049139851F820000E9013989B
:104E6000401C51F820000D900E9901F0FDFCBC494A
:104E700010901398401C51F82010B94A139852F81A
:104E80002000081A0C9001F017FBB3490E901398FC
:104E900051F8200001460C90B048006801F0E4FC95
:104EA0000D900E9901F050FB0F90109901F0EEF962
:104EB000AB491290139851F82000109001F0FCFAC1
:104EC0001190129901F074F9A149086007E0139854
:104ED000401C80B213901398B0F5FA7FA3DB00BF9B
:104EE0009B4801689948006801F02EFB139000F080
:104EF000DDFA9C490860084601689B4801F024FBE4
:104F00009A490860914801689148006801F0ACFC3A
:104F1000014613909348006801F0B8F9944908607D
:104F200094480068944908600846006893490860FE
:104F30000020934908608D4801688F48006801F09F
:104F400003FB139089480168139801F0FDFA8D491D
:104F500008604FF07E508C4908608548016883489E
:104F6000006801F093F98949086080480168006889
:104F700001F0EAFA864908605FE186480078012876
:104F80007DD10020139059E07349139851F8200007
:104F9000129072480168129801F0A2FB4AD86E493B
:104FA0001398401C51F8200012906C480168129828
:104FB00001F096FA3ED26849139800E089E1401C5E
:104FC00051F820000E90139851F820000D900E9982
:104FD00001F04AFC624910901398401C51F82010CF
:104FE0005F4A139852F82000081A0C9001F064FAF6
:104FF00059490E90139851F8200001460C905748DB
:10500000006801F031FC0D900E9901F09DFA0F90AF
:10501000109901F03BF952491290139851F8200071
:10502000109001F049FA1190129901F0C1F8484925
:10503000086007E01398401C80B213901398B0F5F5
:10504000FA7FA1DB00BF4248006846490860494832
:1050500000684949086043480168434801F074FA10
:10506000424908604C4842490860002043490860B2
:10507000434908603D4801683F48006800E01DE082
:1050800001F062FA139039480168139801F05CFA54
:105090003C4908604FF07E503B4908603448016845
:1050A0003248006801F0F2F8384908602F4801687A
:1050B000006801F049FA36490860BEE035480078DA
:1050C00002286BD14FF4FA70139083E022491398B1
:1050D00051F82000129021480168129801F000FB5D
:1050E00074D81398401E1C4951F8200012901B4898
:1050F0000168129801F0F4F968D21398401E16491D
:1051000051F820000E90139851F820000D900E9940
:1051100001F0AAFB12491090139851F82010401E7C
:105120000F4A52F82000081A0C9001F0C5F90E90B1
:105130001398401E084951F8200001460C9007487A
:10514000006801F091FB0D900E9928E044090020C1
:1051500048090020300900201C2A002040090020B6
:10516000D80000206C090020DB0FC940680900202E
:10517000640900202409002070090020740900201F
:10518000780900207C090020800900208409002083
:1051900088090020B8000020F4FD343F4DE001F004
:1051A000D3F90F90109901F071F812901398401EE6
:1051B000854951F82000109001F07EF91190129964
:1051C00000F0F6FF8149086008E0FFE71398401EF1
:1051D00080B21390139800283FF778AF00BF7B4848
:1051E00000687B490860084601687A4801F0ACF91C
:1051F0007949086079487A4908607A4800687A49AC
:10520000086008460068794908600020784908600D
:10521000784908604FF07E5077490860704801680F
:105220006D48006801F032F8744908606A48016806
:10523000006801F089F9724908607248006800F05E
:105240008BFFCDE912016148006800F085FFCDE9D0
:1052500010016D48006800F07FFFCDE90E016B483A
:10526000006800F079FFCDE90C015E48006800F0AD
:1052700073FFCDE90A01DDE91201CDE90801DDE99D
:105280001001CDE90601624800780490DDE90E01C5
:10529000CDE90201DDE90C01CDE900015D48DDE960
:1052A0000A23FDF7E3FD5A480078FDF793FE4748CF
:1052B000006801F0ADF8014613902A20FDF7D2FFF7
:1052C0005048006801F0A4F8014613902B20FDF728
:1052D000C9FF51480078B12874D1FDF759FDFDF799
:1052E000F3FB0001464913900968444A1268CDE96E
:1052F00000210290404803683E4802683C4801682B
:105300003A480068FEF752FFFCF706FFFDF7DCFBAA
:105310000146139041A0FDF7A9FD00204249087005
:1053200000BF414800780028FBD000203F4908809A
:105330001AE03F48008801F0BFF813903D483B4910
:10534000098830F81100119001F0B6F81290139905
:1053500001F08AFA3849354A128841F82200334868
:105360000088401C3149088030480088B0F5806FC3
:10537000DFDB4FF4806231492F4800F063F80020F2
:105380002A49088016E02D482849098850F821004C
:105390004FF08A41129000F00BFF139001F038F8A3
:1053A0002749224A128821F8120020480088401C10
:1053B0001E4908801D480088B0F5806FE3DB204857
:1053C000FDF750F8FFF748B8D80000204409002046
:1053D0006C090020DB0FC94068090020F4FD343F50
:1053E00064090020240900207009002074090020AD
:1053F000780900207C090020800900208409002011
:1054000088090020480900203C09002038090020B4
:10541000B8000020586A0008840000206672657198
:105420003A25640A0D0A0000680000208E09002059
:105430002E000020C4090020502D0020503D0020E7
:10544000504D002070B504460D46164633462A4698
:1054500021460248FAF750FF70BD00009409002071
:105460002DE9F04106460F4600F0A6FC041E0D464D
:1054700018BF0120284320F00040C0F17F6000F1F8
:10548000E040C00F0ED0301C18BF0120384320F080
:105490000040C0F17F6000F1E040C00F04BF012078
:1054A000FBF747F920462946BDE8F08170B505466F
:1054B00001F052F9044620F00040C0F1FF40C00F57
:1054C00008D025F00040C0F1FF40C00F04BF01200C
:1054D000FBF72FF9204670BD10B50246802100234E
:1054E0000D4C2360002013E002EA01031BB90023E6
:1054F0000A4C236002E00123084C23600123064C80
:10550000236049100023064CC4F89031431CD8B2E4
:105510000828E9DB10BD000090012242A081214251
:105520000000224210B500290AD00878002807D0D0
:1055300005487844FBF7EEFF002801D0002010BD9D
:105540000248784410BD00009A1500009215000032
:1055500010B500290AD00878002807D005487844FB
:10556000FBF7D8FF002801D0002010BD0248784486
:1055700010BD00008A1500008215000021F00042D5
:10558000A2F16052B2F5801F01F0004328BFD2F1B2
:105590007F6C0BD95FEA001C43EAC20242EB5070F9
:1055A00018BF704728BF20F001007047B2F5801F78
:1055B000BCBF184670474FEA410C1CF5001F02D2D1
:1055C000084601F088B870B500F06CFB0000008957
:1055D000FFF7F6BF4FF00040A0F5800070470000D5
:1055E00010B591EA030F48BF83F0004300F1D28465
:1055F000841A71EB030C05D2121943EB0C03001B48
:1056000061EB0C01DFF824E14FEA1154A4EB135CC9
:105610001EEA430F18BF9EEA445F73D023EA0E03CD
:10562000DCF1200E21EA045143F4801332D322FA34
:105630000CFE10EB0E0023FA0CFE41EB0E01CCF138
:10564000200E03FA0EFE10EB0E0051F10001B1F531
:10565000801FCCF1200E32D201EB045112FA0EF26F
:10566000BDE8104058BF7047401C38BF5FEA420297
:1056700018BF7047002814BF20F0010041F100015D
:105680004FEA410313F5001F38BF7047A1F1C04135
:1056900000F056BB012A43EB0302ACF1200CDCF115
:1056A0001F0E32BF4FF0000E23FA0CF310EB030075
:1056B00041EB0451B4EB115FD0D0A1EB045101F5E3
:1056C000801149085FEA300001EB04510ED350F11C
:1056D000000038BF12FA0EFE08D1BDE81040C9E73D
:1056E000401C38BF5FEA4202CAD1C3E7BDE81040A0
:1056F0004FEA410313F5001F38BF7047A1F1C041C5
:1057000000F01EBB9EEA445F08D011EA5E0FBDE8C0
:10571000104004BF01F0004100207047BDE8104078
:1057200070B500F0BFFA00BF64FBBE3E0000E0FFB2
:10573000491058BFC1F140415B1058BFC3F140430D
:105740008B42EFF3008070472DE9C04130B4DFF8A1
:10575000A0C23CEA111418BF3CEA131400F0EC801C
:1057600081EA03051CEA111444EAD57418BF1CEA47
:10577000131500F0C780A4EB05044FF0004545EA7F
:10578000C12145EAC32341EA505143EA525304F18F
:105790007F74994204F500344FEAC0204FEAC222D8
:1057A00008BF904200F09C804FEA13650FF240164C
:1057B000765D4FEA134506FB05F7C7F1807706FBD8
:1057C00007F74FEAD737A7FB03687642C8F580385A
:1057D000A7FB06CE38BFA8F1010807FB08E64FF08B
:1057E000000EA6FB028CE6FB03CEDCF1000CCEF132
:1057F000004E38BFAEF1010EA6FB0C584FF000076B
:105800004FF00005E6FB0E87A1FB08C6A0FB07CE04
:1058100016EB0E0645F10005E1FB076515F1E04EBC
:105820007EBFA4F580345FEA46066D4116F180071D
:1058300045F100054FEA17274FEA066647EA056774
:10584000A6F1DE46B6F1805F4FEA15251FD938462E
:1058500024F0010C05EBC471BCF1FE6F01EB0C11DF
:1058600002D8F0BCBDE8008124425CBF01F5801E77
:105870009EEAC47F02D4F0BCBDE80081244238D443
:10588000F0BCA1F1C041BDE8004100F059BA4FEAB7
:10589000D22242EA43524FEAD323A7FB02864FEAC1
:1058A000D02040EA415007FB03661EEA0E0F4FEA84
:1058B000D12105FB026658BFA6EB0056B6EB005699
:1058C0004FEA520E4EEAC37E18EB0E0E56EB530E05
:1058D000BDD518EB02085E417F1C55F10005B6E707
:1058E0004FF480154FF000074FF000064FF000080E
:1058F000ADE7F0BC4FF0000001F1C04101F0004104
:10590000BDE8008111EA0C1F0CEA131500D00CE071
:1059100013EA0C1F00F025804FF00000F0BC81EA74
:10592000030101F00041BDE80081F0BCBDE8004189
:1059300081EA030100F004BAF0BCBDE8004170B593
:1059400000F0B0F9097EFC3E00F007B881EA0301DF
:105950004FF0000001F00041704781EA030100F0C0
:10596000EFB9F0BCBDE800414FF00000214970479D
:10597000FFFDFBF9F7F5F4F2F0EEEDEBE9E8E6E414
:10598000E3E1E0DEDDDBDAD8D7D5D4D3D1D0CFCD9B
:10599000CCCBCAC8C7C6C5C4C2C1C0BFBEBDBCBBD4
:1059A000BAB9B8B7B6B5B4B3B2B1B0AFAEADACABCF
:1059B000AAA9A8A8A7A6A5A4A3A3A2A1A09F9F9EA9
:1059C0009D9C9C9B9A99999897979695959493935B
:1059D000929191908F8F8E8E8D8C8C8B8B8A8989F2
:1059E0008888878786858584848383828281818075
:1059F0000000FF070000F87F4FEA41034FEA5353CE
:105A0000A3F58063D3F11E03C8BFD3F1210C0CDDD5
:105A10004FF0004242EAC12242EA505232FA03FCFD
:105A20008CEAE17CACEBE1707047102BC4BF002026
:105A3000704703F5787CBCF1FF3F04D06FF0004263
:105A400082EA2100704770B500F02CF94992248059
:105A500000207047F2E700004FEA1153A3F580637E
:105A6000D3F11E03A8BFD3F1200C08DB4FF0004296
:105A700042EAC12252EA505232FA03F07047094218
:105A80000BD4102BC4BF0020704703F5787CBCF109
:105A9000FF3F05D04FF0FF3070474FF000007047D8
:105AA00070B500F0FFF800BF4992248000207047D5
:105AB000F0E7B0FA80F310FA03F10AD0C3F11D0346
:105AC00003F580634FEA41504FEA035202EBD121C4
:105AD00070474FF00000704751EA030C17D41CF5D3
